{
  "contractName": "BlindAuction",
  "abi": [
    {
      "inputs": [
        {
          "internalType": "uint256",
          "name": "biddingTime",
          "type": "uint256"
        },
        {
          "internalType": "uint256",
          "name": "revealTime",
          "type": "uint256"
        },
        {
          "internalType": "address payable",
          "name": "beneficiaryAddress",
          "type": "address"
        }
      ],
      "stateMutability": "nonpayable",
      "type": "constructor"
    },
    {
      "inputs": [],
      "name": "AuctionEndAlreadyCalled",
      "type": "error"
    },
    {
      "inputs": [
        {
          "internalType": "uint256",
          "name": "time",
          "type": "uint256"
        }
      ],
      "name": "TooEarly",
      "type": "error"
    },
    {
      "inputs": [
        {
          "internalType": "uint256",
          "name": "time",
          "type": "uint256"
        }
      ],
      "name": "TooLate",
      "type": "error"
    },
    {
      "anonymous": false,
      "inputs": [
        {
          "indexed": false,
          "internalType": "address",
          "name": "winner",
          "type": "address"
        },
        {
          "indexed": false,
          "internalType": "uint256",
          "name": "highestBid",
          "type": "uint256"
        }
      ],
      "name": "AuctionEnded",
      "type": "event"
    },
    {
      "inputs": [],
      "name": "beneficiary",
      "outputs": [
        {
          "internalType": "address payable",
          "name": "",
          "type": "address"
        }
      ],
      "stateMutability": "view",
      "type": "function"
    },
    {
      "inputs": [],
      "name": "biddingEnd",
      "outputs": [
        {
          "internalType": "uint256",
          "name": "",
          "type": "uint256"
        }
      ],
      "stateMutability": "view",
      "type": "function"
    },
    {
      "inputs": [
        {
          "internalType": "address",
          "name": "",
          "type": "address"
        },
        {
          "internalType": "uint256",
          "name": "",
          "type": "uint256"
        }
      ],
      "name": "bids",
      "outputs": [
        {
          "internalType": "bytes32",
          "name": "blindedBid",
          "type": "bytes32"
        },
        {
          "internalType": "uint256",
          "name": "deposit",
          "type": "uint256"
        },
        {
          "internalType": "string",
          "name": "encrypt",
          "type": "string"
        }
      ],
      "stateMutability": "view",
      "type": "function"
    },
    {
      "inputs": [],
      "name": "checkFlag",
      "outputs": [
        {
          "internalType": "uint256",
          "name": "",
          "type": "uint256"
        }
      ],
      "stateMutability": "view",
      "type": "function"
    },
    {
      "inputs": [],
      "name": "checkKeccak",
      "outputs": [
        {
          "internalType": "bytes32",
          "name": "",
          "type": "bytes32"
        }
      ],
      "stateMutability": "view",
      "type": "function"
    },
    {
      "inputs": [],
      "name": "ended",
      "outputs": [
        {
          "internalType": "bool",
          "name": "",
          "type": "bool"
        }
      ],
      "stateMutability": "view",
      "type": "function"
    },
    {
      "inputs": [],
      "name": "highestBid",
      "outputs": [
        {
          "internalType": "uint256",
          "name": "",
          "type": "uint256"
        }
      ],
      "stateMutability": "view",
      "type": "function"
    },
    {
      "inputs": [],
      "name": "highestBidder",
      "outputs": [
        {
          "internalType": "address",
          "name": "",
          "type": "address"
        }
      ],
      "stateMutability": "view",
      "type": "function"
    },
    {
      "inputs": [],
      "name": "revealEnd",
      "outputs": [
        {
          "internalType": "uint256",
          "name": "",
          "type": "uint256"
        }
      ],
      "stateMutability": "view",
      "type": "function"
    },
    {
      "inputs": [
        {
          "internalType": "address",
          "name": "",
          "type": "address"
        }
      ],
      "name": "totalDeposit",
      "outputs": [
        {
          "internalType": "uint256",
          "name": "",
          "type": "uint256"
        }
      ],
      "stateMutability": "view",
      "type": "function"
    },
    {
      "inputs": [
        {
          "internalType": "bytes32",
          "name": "blindedBid",
          "type": "bytes32"
        },
        {
          "internalType": "string",
          "name": "encryptKey",
          "type": "string"
        }
      ],
      "name": "bid",
      "outputs": [],
      "stateMutability": "payable",
      "type": "function"
    },
    {
      "inputs": [
        {
          "internalType": "uint256[]",
          "name": "values",
          "type": "uint256[]"
        },
        {
          "internalType": "bool[]",
          "name": "fakes",
          "type": "bool[]"
        },
        {
          "internalType": "bytes32[]",
          "name": "secrets",
          "type": "bytes32[]"
        }
      ],
      "name": "reveal",
      "outputs": [],
      "stateMutability": "nonpayable",
      "type": "function"
    },
    {
      "inputs": [],
      "name": "withdraw",
      "outputs": [],
      "stateMutability": "nonpayable",
      "type": "function"
    },
    {
      "inputs": [],
      "name": "auctionEnd",
      "outputs": [],
      "stateMutability": "nonpayable",
      "type": "function"
    },
    {
      "inputs": [
        {
          "internalType": "address",
          "name": "bidder",
          "type": "address"
        }
      ],
      "name": "getListBids",
      "outputs": [
        {
          "components": [
            {
              "internalType": "bytes32",
              "name": "blindedBid",
              "type": "bytes32"
            },
            {
              "internalType": "uint256",
              "name": "deposit",
              "type": "uint256"
            },
            {
              "internalType": "string",
              "name": "encrypt",
              "type": "string"
            }
          ],
          "internalType": "struct BlindAuction.Bid[]",
          "name": "",
          "type": "tuple[]"
        }
      ],
      "stateMutability": "view",
      "type": "function"
    }
  ],
  "bytecode": "0x60806040523480156200001157600080fd5b5060405162001af138038062001af18339818101604052810190620000379190620000d8565b806000806101000a81548173ffffffffffffffffffffffffffffffffffffffff021916908373ffffffffffffffffffffffffffffffffffffffff16021790555082426200008591906200012e565b600181905550816001546200009b91906200012e565b6002819055505050506200022c565b600081519050620000bb81620001f8565b92915050565b600081519050620000d28162000212565b92915050565b600080600060608486031215620000ee57600080fd5b6000620000fe86828701620000c1565b93505060206200011186828701620000c1565b92505060406200012486828701620000aa565b9150509250925092565b60006200013b82620001bf565b91506200014883620001bf565b9250827fffffffffffffffffffffffffffffffffffffffffffffffffffffffffffffffff0382111562000180576200017f620001c9565b5b828201905092915050565b600062000198826200019f565b9050919050565b600073ffffffffffffffffffffffffffffffffffffffff82169050919050565b6000819050919050565b7f4e487b7100000000000000000000000000000000000000000000000000000000600052601160045260246000fd5b62000203816200018b565b81146200020f57600080fd5b50565b6200021d81620001bf565b81146200022957600080fd5b50565b6118b5806200023c6000396000f3fe6080604052600436106100e85760003560e01c8063475e69a91161008a578063a6e6647711610059578063a6e66477146102d4578063d57bde79146102ff578063e0f154161461032a578063f1be179214610346576100e8565b8063475e69a914610218578063900f080a14610255578063914136ae1461027e57806391f90157146102a9576100e8565b80632a24f46c116100c65780632a24f46c1461019457806338af3eed146101ab5780633ccfd60b146101d6578063423b217f146101ed576100e8565b806301495c1c146100ed5780631084e8121461012c57806312fa6feb14610169575b600080fd5b3480156100f957600080fd5b50610114600480360381019061010f9190611095565b610371565b6040516101239392919061145d565b60405180910390f35b34801561013857600080fd5b50610153600480360381019061014e919061106c565b610440565b604051610160919061149b565b60405180910390f35b34801561017557600080fd5b5061017e610458565b60405161018b9190611427565b60405180910390f35b3480156101a057600080fd5b506101a961046b565b005b3480156101b757600080fd5b506101c06105dd565b6040516101cd91906113c1565b60405180910390f35b3480156101e257600080fd5b506101eb610601565b005b3480156101f957600080fd5b5061020261078d565b60405161020f919061149b565b60405180910390f35b34801561022457600080fd5b5061023f600480360381019061023a919061106c565b610793565b60405161024c9190611405565b60405180910390f35b34801561026157600080fd5b5061027c600480360381019061027791906110d1565b6108d7565b005b34801561028a57600080fd5b50610293610c23565b6040516102a0919061149b565b60405180910390f35b3480156102b557600080fd5b506102be610c29565b6040516102cb91906113a6565b60405180910390f35b3480156102e057600080fd5b506102e9610c4f565b6040516102f6919061149b565b60405180910390f35b34801561030b57600080fd5b50610314610c55565b604051610321919061149b565b60405180910390f35b610344600480360381019061033f919061119e565b610c5b565b005b34801561035257600080fd5b5061035b610db3565b6040516103689190611442565b60405180910390f35b6006602052816000526040600020818154811061038d57600080fd5b9060005260206000209060030201600091509150508060000154908060010154908060020180546103bd906116d9565b80601f01602080910402602001604051908101604052809291908181526020018280546103e9906116d9565b80156104365780601f1061040b57610100808354040283529160200191610436565b820191906000526020600020905b81548152906001019060200180831161041957829003601f168201915b5050505050905083565b60076020528060005260406000206000915090505481565b600360009054906101000a900460ff1681565b6002548042116104b257806040517f2a35a3240000000000000000000000000000000000000000000000000000000081526004016104a9919061149b565b60405180910390fd5b600360009054906101000a900460ff16156104f9576040517f61cfdcf800000000000000000000000000000000000000000000000000000000815260040160405180910390fd5b7fdaec4582d5d9595688c8c98545fdd1c696d41c6aeaeb636737e84ed2f5c00eda600860009054906101000a900473ffffffffffffffffffffffffffffffffffffffff1660095460405161054e9291906113dc565b60405180910390a16001600360006101000a81548160ff02191690831515021790555060008054906101000a900473ffffffffffffffffffffffffffffffffffffffff1673ffffffffffffffffffffffffffffffffffffffff166108fc6009549081150290604051600060405180830381858888f193505050501580156105d9573d6000803e3d6000fd5b5050565b60008054906101000a900473ffffffffffffffffffffffffffffffffffffffff1681565b60025480421161064857806040517f2a35a32400000000000000000000000000000000000000000000000000000000815260040161063f919061149b565b60405180910390fd5b6000600760003373ffffffffffffffffffffffffffffffffffffffff1673ffffffffffffffffffffffffffffffffffffffff168152602001908152602001600020549050600860009054906101000a900473ffffffffffffffffffffffffffffffffffffffff1673ffffffffffffffffffffffffffffffffffffffff163373ffffffffffffffffffffffffffffffffffffffff1614156106f357600954816106f091906115ff565b90505b6000811115610789576000600760003373ffffffffffffffffffffffffffffffffffffffff1673ffffffffffffffffffffffffffffffffffffffff168152602001908152602001600020819055503373ffffffffffffffffffffffffffffffffffffffff166108fc829081150290604051600060405180830381858888f19350505050158015610787573d6000803e3d6000fd5b505b5050565b60015481565b6060600660008373ffffffffffffffffffffffffffffffffffffffff1673ffffffffffffffffffffffffffffffffffffffff168152602001908152602001600020805480602002602001604051908101604052809291908181526020016000905b828210156108cc5783829060005260206000209060030201604051806060016040529081600082015481526020016001820154815260200160028201805461083b906116d9565b80601f0160208091040260200160405190810160405280929190818152602001828054610867906116d9565b80156108b45780601f10610889576101008083540402835291602001916108b4565b820191906000526020600020905b81548152906001019060200180831161089757829003601f168201915b505050505081525050815260200190600101906107f4565b505050509050919050565b60015480421161091e57806040517f2a35a324000000000000000000000000000000000000000000000000000000008152600401610915919061149b565b60405180910390fd5b60025480421061096557806040517f691e568200000000000000000000000000000000000000000000000000000000815260040161095c919061149b565b60405180910390fd5b6000600660003373ffffffffffffffffffffffffffffffffffffffff1673ffffffffffffffffffffffffffffffffffffffff1681526020019081526020016000208054905090508089899050146109bb57600080fd5b8087879050146109ca57600080fd5b8085859050146109d957600080fd5b60005b81811015610c17576000600660003373ffffffffffffffffffffffffffffffffffffffff1673ffffffffffffffffffffffffffffffffffffffff1681526020019081526020016000208281548110610a5d577f4e487b7100000000000000000000000000000000000000000000000000000000600052603260045260246000fd5b9060005260206000209060030201905060008060008d8d86818110610aab577f4e487b7100000000000000000000000000000000000000000000000000000000600052603260045260246000fd5b905060200201358c8c87818110610aeb577f4e487b7100000000000000000000000000000000000000000000000000000000600052603260045260246000fd5b9050602002016020810190610b009190611175565b8b8b88818110610b39577f4e487b7100000000000000000000000000000000000000000000000000000000600052603260045260246000fd5b905060200201359250925092508115610b5d57600160048190555050505050610c04565b828282604051602001610b72939291906114b6565b60405160208183030381529060405280519060200120846000015414610bd4576002600481905550828282604051602001610baf939291906114b6565b6040516020818303038152906040528051906020012060058190555050505050610c04565b82846001015410610bf3576003600481905550610bf13384610db9565b505b6000801b8460000181905550505050505b8080610c0f9061173c565b9150506109dc565b50505050505050505050565b60045481565b600860009054906101000a900473ffffffffffffffffffffffffffffffffffffffff1681565b60025481565b60095481565b600154804210610ca257806040517f691e5682000000000000000000000000000000000000000000000000000000008152600401610c99919061149b565b60405180910390fd5b600660003373ffffffffffffffffffffffffffffffffffffffff1673ffffffffffffffffffffffffffffffffffffffff168152602001908152602001600020604051806060016040528085815260200134815260200184815250908060018154018082558091505060019003906000526020600020906003020160009091909190915060008201518160000155602082015181600101556040820151816002019080519060200190610d55929190610e2f565b50505034600760003373ffffffffffffffffffffffffffffffffffffffff1673ffffffffffffffffffffffffffffffffffffffff1681526020019081526020016000206000828254610da791906115a9565b92505081905550505050565b60055481565b60006009548211610dd4576004808190555060009050610e29565b60056004819055508160098190555082600860006101000a81548173ffffffffffffffffffffffffffffffffffffffff021916908373ffffffffffffffffffffffffffffffffffffffff160217905550600190505b92915050565b828054610e3b906116d9565b90600052602060002090601f016020900481019282610e5d5760008555610ea4565b82601f10610e7657805160ff1916838001178555610ea4565b82800160010185558215610ea4579182015b82811115610ea3578251825591602001919060010190610e88565b5b509050610eb19190610eb5565b5090565b5b80821115610ece576000816000905550600101610eb6565b5090565b6000610ee5610ee084611512565b6114ed565b905082815260208101848484011115610efd57600080fd5b610f08848285611697565b509392505050565b600081359050610f1f81611823565b92915050565b60008083601f840112610f3757600080fd5b8235905067ffffffffffffffff811115610f5057600080fd5b602083019150836020820283011115610f6857600080fd5b9250929050565b60008083601f840112610f8157600080fd5b8235905067ffffffffffffffff811115610f9a57600080fd5b602083019150836020820283011115610fb257600080fd5b9250929050565b60008083601f840112610fcb57600080fd5b8235905067ffffffffffffffff811115610fe457600080fd5b602083019150836020820283011115610ffc57600080fd5b9250929050565b6000813590506110128161183a565b92915050565b60008135905061102781611851565b92915050565b600082601f83011261103e57600080fd5b813561104e848260208601610ed2565b91505092915050565b60008135905061106681611868565b92915050565b60006020828403121561107e57600080fd5b600061108c84828501610f10565b91505092915050565b600080604083850312156110a857600080fd5b60006110b685828601610f10565b92505060206110c785828601611057565b9150509250929050565b600080600080600080606087890312156110ea57600080fd5b600087013567ffffffffffffffff81111561110457600080fd5b61111089828a01610fb9565b9650965050602087013567ffffffffffffffff81111561112f57600080fd5b61113b89828a01610f25565b9450945050604087013567ffffffffffffffff81111561115a57600080fd5b61116689828a01610f6f565b92509250509295509295509295565b60006020828403121561118757600080fd5b600061119584828501611003565b91505092915050565b600080604083850312156111b157600080fd5b60006111bf85828601611018565b925050602083013567ffffffffffffffff8111156111dc57600080fd5b6111e88582860161102d565b9150509250929050565b60006111fe8383611338565b905092915050565b61120f81611645565b82525050565b61121e81611633565b82525050565b600061122f82611553565b6112398185611576565b93508360208202850161124b85611543565b8060005b85811015611287578484038952815161126885826111f2565b945061127383611569565b925060208a0199505060018101905061124f565b50829750879550505050505092915050565b6112a281611657565b82525050565b6112b181611663565b82525050565b6112c081611663565b82525050565b60006112d18261155e565b6112db8185611587565b93506112eb8185602086016116a6565b6112f481611812565b840191505092915050565b600061130a8261155e565b6113148185611598565b93506113248185602086016116a6565b61132d81611812565b840191505092915050565b600060608301600083015161135060008601826112a8565b5060208301516113636020860182611388565b506040830151848203604086015261137b82826112c6565b9150508091505092915050565b6113918161168d565b82525050565b6113a08161168d565b82525050565b60006020820190506113bb6000830184611215565b92915050565b60006020820190506113d66000830184611206565b92915050565b60006040820190506113f16000830185611215565b6113fe6020830184611397565b9392505050565b6000602082019050818103600083015261141f8184611224565b905092915050565b600060208201905061143c6000830184611299565b92915050565b600060208201905061145760008301846112b7565b92915050565b600060608201905061147260008301866112b7565b61147f6020830185611397565b818103604083015261149181846112ff565b9050949350505050565b60006020820190506114b06000830184611397565b92915050565b60006060820190506114cb6000830186611397565b6114d86020830185611299565b6114e560408301846112b7565b949350505050565b60006114f7611508565b9050611503828261170b565b919050565b6000604051905090565b600067ffffffffffffffff82111561152d5761152c6117e3565b5b61153682611812565b9050602081019050919050565b6000819050602082019050919050565b600081519050919050565b600081519050919050565b6000602082019050919050565b600082825260208201905092915050565b600082825260208201905092915050565b600082825260208201905092915050565b60006115b48261168d565b91506115bf8361168d565b9250827fffffffffffffffffffffffffffffffffffffffffffffffffffffffffffffffff038211156115f4576115f3611785565b5b828201905092915050565b600061160a8261168d565b91506116158361168d565b92508282101561162857611627611785565b5b828203905092915050565b600061163e8261166d565b9050919050565b60006116508261166d565b9050919050565b60008115159050919050565b6000819050919050565b600073ffffffffffffffffffffffffffffffffffffffff82169050919050565b6000819050919050565b82818337600083830152505050565b60005b838110156116c45780820151818401526020810190506116a9565b838111156116d3576000848401525b50505050565b600060028204905060018216806116f157607f821691505b60208210811415611705576117046117b4565b5b50919050565b61171482611812565b810181811067ffffffffffffffff82111715611733576117326117e3565b5b80604052505050565b60006117478261168d565b91507fffffffffffffffffffffffffffffffffffffffffffffffffffffffffffffffff82141561177a57611779611785565b5b600182019050919050565b7f4e487b7100000000000000000000000000000000000000000000000000000000600052601160045260246000fd5b7f4e487b7100000000000000000000000000000000000000000000000000000000600052602260045260246000fd5b7f4e487b7100000000000000000000000000000000000000000000000000000000600052604160045260246000fd5b6000601f19601f8301169050919050565b61182c81611633565b811461183757600080fd5b50565b61184381611657565b811461184e57600080fd5b50565b61185a81611663565b811461186557600080fd5b50565b6118718161168d565b811461187c57600080fd5b5056fea264697066735822122087331facfda52279b15c9cfcbbeaaa5ee0b22fa6d5327cfbe0aeff054010d4cc64736f6c63430008040033",
  "immutableReferences": {},
  "source": "// SPDX-License-Identifier: GPL-3.0\r\npragma solidity ^0.8.4;\r\n\r\ncontract BlindAuction {\r\n    struct Bid {\r\n        bytes32 blindedBid;\r\n        uint256 deposit;\r\n        string encrypt;\r\n    }\r\n\r\n    address payable public beneficiary;\r\n    uint256 public biddingEnd;\r\n    uint256 public revealEnd;\r\n    bool public ended;\r\n    uint256 public checkFlag;\r\n    bytes32 public checkKeccak;\r\n\r\n    mapping(address => Bid[]) public bids;\r\n    mapping(address => uint256) public totalDeposit;\r\n    address public highestBidder;\r\n    uint256 public highestBid;\r\n\r\n    event AuctionEnded(address winner, uint256 highestBid);\r\n\r\n    error TooEarly(uint256 time);\r\n\r\n    error TooLate(uint256 time);\r\n\r\n    error AuctionEndAlreadyCalled();\r\n\r\n    modifier onlyBefore(uint256 time) {\r\n        if (block.timestamp >= time) revert TooLate(time);\r\n        _;\r\n    }\r\n    modifier onlyAfter(uint256 time) {\r\n        if (block.timestamp <= time) revert TooEarly(time);\r\n        _;\r\n    }\r\n\r\n    constructor(\r\n        uint256 biddingTime,\r\n        uint256 revealTime,\r\n        address payable beneficiaryAddress\r\n    ) {\r\n        beneficiary = beneficiaryAddress;\r\n        biddingEnd = block.timestamp + biddingTime;\r\n        revealEnd = biddingEnd + revealTime;\r\n    }\r\n\r\n    function bid(bytes32 blindedBid, string memory encryptKey)\r\n        external\r\n        payable\r\n        onlyBefore(biddingEnd)\r\n    {\r\n        bids[msg.sender].push(\r\n            Bid({\r\n                blindedBid: blindedBid,\r\n                deposit: msg.value,\r\n                encrypt: encryptKey\r\n            })\r\n        );\r\n        totalDeposit[msg.sender] += msg.value;\r\n    }\r\n\r\n    function reveal(\r\n        uint256[] calldata values,\r\n        bool[] calldata fakes,\r\n        bytes32[] calldata secrets\r\n    ) external onlyAfter(biddingEnd) onlyBefore(revealEnd) {\r\n        uint256 length = bids[msg.sender].length;\r\n        require(values.length == length);\r\n        require(fakes.length == length);\r\n        require(secrets.length == length);\r\n\r\n        for (uint256 i = 0; i < length; i++) {\r\n            Bid storage bidToCheck = bids[msg.sender][i];\r\n            (uint256 value, bool fake, bytes32 secret) = (\r\n                values[i],\r\n                fakes[i],\r\n                secrets[i]\r\n            );\r\n            if (fake) {\r\n                checkFlag = 1;\r\n                continue;\r\n            }\r\n            if (\r\n                bidToCheck.blindedBid !=\r\n                keccak256(abi.encode(value, fake, secret))\r\n            ) {\r\n                checkFlag = 2;\r\n                checkKeccak = keccak256(abi.encode(value, fake, secret));\r\n                continue;\r\n            }\r\n            if (bidToCheck.deposit >= value) {\r\n                checkFlag = 3;\r\n                placeBid(msg.sender, value);\r\n            }\r\n            bidToCheck.blindedBid = bytes32(0);\r\n        }\r\n    }\r\n\r\n    function withdraw() external onlyAfter(revealEnd) {\r\n        uint256 amount = totalDeposit[msg.sender];\r\n        if (msg.sender == highestBidder) {\r\n            amount -= highestBid;\r\n        }\r\n\r\n        if (amount > 0) {\r\n            totalDeposit[msg.sender] = 0;\r\n            payable(msg.sender).transfer(amount);\r\n        }\r\n    }\r\n\r\n    function auctionEnd() external onlyAfter(revealEnd) {\r\n        if (ended) revert AuctionEndAlreadyCalled();\r\n        emit AuctionEnded(highestBidder, highestBid);\r\n        ended = true;\r\n        beneficiary.transfer(highestBid);\r\n    }\r\n\r\n    function placeBid(address bidder, uint256 value)\r\n        internal\r\n        returns (bool success)\r\n    {\r\n        if (value <= highestBid) {\r\n            checkFlag = 4;\r\n            return false;\r\n        }\r\n        checkFlag = 5;\r\n        highestBid = value;\r\n        highestBidder = bidder;\r\n        return true;\r\n    }\r\n\r\n    function getListBids(address bidder) public view returns (Bid[] memory) {\r\n        return bids[bidder];\r\n    }\r\n}\r\n",
  "sourcePath": "F:\\blockchain\\blindauction\\contract2\\Blind-Auction-Contract\\Contract\\contracts\\BlindAuction.sol",
  "compiler": {
    "name": "solc",
    "version": "0.8.4+commit.c7e474f2.Emscripten.clang"
  },
  "schemaVersion": "3.4.9",
  "updatedAt": "2022-10-03T16:33:04.013Z",
  "devdoc": {
    "kind": "dev",
    "methods": {},
    "version": 1
  },
  "userdoc": {
    "kind": "user",
    "methods": {},
    "version": 1
  }
}