{
  "contractName": "BlindAuction",
  "abi": [
    {
      "inputs": [
        {
          "internalType": "uint256",
          "name": "biddingTime",
          "type": "uint256"
        },
        {
          "internalType": "uint256",
          "name": "revealTime",
          "type": "uint256"
        },
        {
          "internalType": "address payable",
          "name": "beneficiaryAddress",
          "type": "address"
        }
      ],
      "stateMutability": "nonpayable",
      "type": "constructor"
    },
    {
      "inputs": [],
      "name": "AuctionEndAlreadyCalled",
      "type": "error"
    },
    {
      "inputs": [
        {
          "internalType": "uint256",
          "name": "time",
          "type": "uint256"
        }
      ],
      "name": "TooEarly",
      "type": "error"
    },
    {
      "inputs": [
        {
          "internalType": "uint256",
          "name": "time",
          "type": "uint256"
        }
      ],
      "name": "TooLate",
      "type": "error"
    },
    {
      "anonymous": false,
      "inputs": [
        {
          "indexed": false,
          "internalType": "address",
          "name": "winner",
          "type": "address"
        },
        {
          "indexed": false,
          "internalType": "uint256",
          "name": "highestBid",
          "type": "uint256"
        }
      ],
      "name": "AuctionEnded",
      "type": "event"
    },
    {
      "inputs": [],
      "name": "beneficiary",
      "outputs": [
        {
          "internalType": "address payable",
          "name": "",
          "type": "address"
        }
      ],
      "stateMutability": "view",
      "type": "function"
    },
    {
      "inputs": [],
      "name": "biddingEnd",
      "outputs": [
        {
          "internalType": "uint256",
          "name": "",
          "type": "uint256"
        }
      ],
      "stateMutability": "view",
      "type": "function"
    },
    {
      "inputs": [
        {
          "internalType": "address",
          "name": "",
          "type": "address"
        },
        {
          "internalType": "uint256",
          "name": "",
          "type": "uint256"
        }
      ],
      "name": "bids",
      "outputs": [
        {
          "internalType": "bytes32",
          "name": "blindedBid",
          "type": "bytes32"
        },
        {
          "internalType": "uint256",
          "name": "deposit",
          "type": "uint256"
        },
        {
          "internalType": "string",
          "name": "encrypt",
          "type": "string"
        }
      ],
      "stateMutability": "view",
      "type": "function"
    },
    {
      "inputs": [],
      "name": "ended",
      "outputs": [
        {
          "internalType": "bool",
          "name": "",
          "type": "bool"
        }
      ],
      "stateMutability": "view",
      "type": "function"
    },
    {
      "inputs": [],
      "name": "highestBid",
      "outputs": [
        {
          "internalType": "uint256",
          "name": "",
          "type": "uint256"
        }
      ],
      "stateMutability": "view",
      "type": "function"
    },
    {
      "inputs": [],
      "name": "highestBidder",
      "outputs": [
        {
          "internalType": "address",
          "name": "",
          "type": "address"
        }
      ],
      "stateMutability": "view",
      "type": "function"
    },
    {
      "inputs": [],
      "name": "revealEnd",
      "outputs": [
        {
          "internalType": "uint256",
          "name": "",
          "type": "uint256"
        }
      ],
      "stateMutability": "view",
      "type": "function"
    },
    {
      "inputs": [
        {
          "internalType": "address",
          "name": "",
          "type": "address"
        }
      ],
      "name": "totalDeposit",
      "outputs": [
        {
          "internalType": "uint256",
          "name": "",
          "type": "uint256"
        }
      ],
      "stateMutability": "view",
      "type": "function"
    },
    {
      "inputs": [
        {
          "internalType": "bytes32",
          "name": "blindedBid",
          "type": "bytes32"
        },
        {
          "internalType": "string",
          "name": "encryptKey",
          "type": "string"
        }
      ],
      "name": "bid",
      "outputs": [],
      "stateMutability": "payable",
      "type": "function"
    },
    {
      "inputs": [
        {
          "internalType": "uint256[]",
          "name": "values",
          "type": "uint256[]"
        },
        {
          "internalType": "bool[]",
          "name": "fakes",
          "type": "bool[]"
        },
        {
          "internalType": "bytes32[]",
          "name": "secrets",
          "type": "bytes32[]"
        }
      ],
      "name": "reveal",
      "outputs": [],
      "stateMutability": "nonpayable",
      "type": "function"
    },
    {
      "inputs": [],
      "name": "withdraw",
      "outputs": [],
      "stateMutability": "nonpayable",
      "type": "function"
    },
    {
      "inputs": [],
      "name": "auctionEnd",
      "outputs": [],
      "stateMutability": "nonpayable",
      "type": "function"
    },
    {
      "inputs": [
        {
          "internalType": "address",
          "name": "bidder",
          "type": "address"
        }
      ],
      "name": "getListBids",
      "outputs": [
        {
          "components": [
            {
              "internalType": "bytes32",
              "name": "blindedBid",
              "type": "bytes32"
            },
            {
              "internalType": "uint256",
              "name": "deposit",
              "type": "uint256"
            },
            {
              "internalType": "string",
              "name": "encrypt",
              "type": "string"
            }
          ],
          "internalType": "struct BlindAuction.Bid[]",
          "name": "",
          "type": "tuple[]"
        }
      ],
      "stateMutability": "view",
      "type": "function"
    },
    {
      "inputs": [],
      "name": "getTotalDeposit",
      "outputs": [
        {
          "internalType": "uint256",
          "name": "",
          "type": "uint256"
        }
      ],
      "stateMutability": "view",
      "type": "function"
    }
  ],
  "bytecode": "0x60806040523480156200001157600080fd5b5060405162001a8338038062001a838339818101604052810190620000379190620000d8565b806000806101000a81548173ffffffffffffffffffffffffffffffffffffffff021916908373ffffffffffffffffffffffffffffffffffffffff16021790555082426200008591906200012e565b600181905550816001546200009b91906200012e565b6002819055505050506200022c565b600081519050620000bb81620001f8565b92915050565b600081519050620000d28162000212565b92915050565b600080600060608486031215620000ee57600080fd5b6000620000fe86828701620000c1565b93505060206200011186828701620000c1565b92505060406200012486828701620000aa565b9150509250925092565b60006200013b82620001bf565b91506200014883620001bf565b9250827fffffffffffffffffffffffffffffffffffffffffffffffffffffffffffffffff0382111562000180576200017f620001c9565b5b828201905092915050565b600062000198826200019f565b9050919050565b600073ffffffffffffffffffffffffffffffffffffffff82169050919050565b6000819050919050565b7f4e487b7100000000000000000000000000000000000000000000000000000000600052601160045260246000fd5b62000203816200018b565b81146200020f57600080fd5b50565b6200021d81620001bf565b81146200022957600080fd5b50565b611847806200023c6000396000f3fe6080604052600436106100dd5760003560e01c8063475e69a91161007f578063a6e6647711610059578063a6e664771461029e578063c022215c146102c9578063d57bde79146102f4578063e0f154161461031f576100dd565b8063475e69a91461020d578063900f080a1461024a57806391f9015714610273576100dd565b80632a24f46c116100bb5780632a24f46c1461018957806338af3eed146101a05780633ccfd60b146101cb578063423b217f146101e2576100dd565b806301495c1c146100e25780631084e8121461012157806312fa6feb1461015e575b600080fd5b3480156100ee57600080fd5b5061010960048036038101906101049190611042565b61033b565b604051610118939291906113ef565b60405180910390f35b34801561012d57600080fd5b5061014860048036038101906101439190611019565b61040a565b604051610155919061142d565b60405180910390f35b34801561016a57600080fd5b50610173610422565b60405161018091906113d4565b60405180910390f35b34801561019557600080fd5b5061019e610435565b005b3480156101ac57600080fd5b506101b56105a7565b6040516101c2919061136e565b60405180910390f35b3480156101d757600080fd5b506101e06105cb565b005b3480156101ee57600080fd5b506101f7610757565b604051610204919061142d565b60405180910390f35b34801561021957600080fd5b50610234600480360381019061022f9190611019565b61075d565b60405161024191906113b2565b60405180910390f35b34801561025657600080fd5b50610271600480360381019061026c919061107e565b6108a1565b005b34801561027f57600080fd5b50610288610ba4565b6040516102959190611353565b60405180910390f35b3480156102aa57600080fd5b506102b3610bca565b6040516102c0919061142d565b60405180910390f35b3480156102d557600080fd5b506102de610bd0565b6040516102eb919061142d565b60405180910390f35b34801561030057600080fd5b50610309610c17565b604051610316919061142d565b60405180910390f35b6103396004803603810190610334919061114b565b610c1d565b005b6004602052816000526040600020818154811061035757600080fd5b9060005260206000209060030201600091509150508060000154908060010154908060020180546103879061166b565b80601f01602080910402602001604051908101604052809291908181526020018280546103b39061166b565b80156104005780601f106103d557610100808354040283529160200191610400565b820191906000526020600020905b8154815290600101906020018083116103e357829003601f168201915b5050505050905083565b60056020528060005260406000206000915090505481565b600360009054906101000a900460ff1681565b60025480421161047c57806040517f2a35a324000000000000000000000000000000000000000000000000000000008152600401610473919061142d565b60405180910390fd5b600360009054906101000a900460ff16156104c3576040517f61cfdcf800000000000000000000000000000000000000000000000000000000815260040160405180910390fd5b7fdaec4582d5d9595688c8c98545fdd1c696d41c6aeaeb636737e84ed2f5c00eda600660009054906101000a900473ffffffffffffffffffffffffffffffffffffffff16600754604051610518929190611389565b60405180910390a16001600360006101000a81548160ff02191690831515021790555060008054906101000a900473ffffffffffffffffffffffffffffffffffffffff1673ffffffffffffffffffffffffffffffffffffffff166108fc6007549081150290604051600060405180830381858888f193505050501580156105a3573d6000803e3d6000fd5b5050565b60008054906101000a900473ffffffffffffffffffffffffffffffffffffffff1681565b60025480421161061257806040517f2a35a324000000000000000000000000000000000000000000000000000000008152600401610609919061142d565b60405180910390fd5b6000600560003373ffffffffffffffffffffffffffffffffffffffff1673ffffffffffffffffffffffffffffffffffffffff168152602001908152602001600020549050600660009054906101000a900473ffffffffffffffffffffffffffffffffffffffff1673ffffffffffffffffffffffffffffffffffffffff163373ffffffffffffffffffffffffffffffffffffffff1614156106bd57600754816106ba9190611591565b90505b6000811115610753576000600560003373ffffffffffffffffffffffffffffffffffffffff1673ffffffffffffffffffffffffffffffffffffffff168152602001908152602001600020819055503373ffffffffffffffffffffffffffffffffffffffff166108fc829081150290604051600060405180830381858888f19350505050158015610751573d6000803e3d6000fd5b505b5050565b60015481565b6060600460008373ffffffffffffffffffffffffffffffffffffffff1673ffffffffffffffffffffffffffffffffffffffff168152602001908152602001600020805480602002602001604051908101604052809291908181526020016000905b82821015610896578382906000526020600020906003020160405180606001604052908160008201548152602001600182015481526020016002820180546108059061166b565b80601f01602080910402602001604051908101604052809291908181526020018280546108319061166b565b801561087e5780601f106108535761010080835404028352916020019161087e565b820191906000526020600020905b81548152906001019060200180831161086157829003601f168201915b505050505081525050815260200190600101906107be565b505050509050919050565b6001548042116108e857806040517f2a35a3240000000000000000000000000000000000000000000000000000000081526004016108df919061142d565b60405180910390fd5b60025480421061092f57806040517f691e5682000000000000000000000000000000000000000000000000000000008152600401610926919061142d565b60405180910390fd5b6000600460003373ffffffffffffffffffffffffffffffffffffffff1673ffffffffffffffffffffffffffffffffffffffff16815260200190815260200160002080549050905080898990501461098557600080fd5b80878790501461099457600080fd5b8085859050146109a357600080fd5b60005b81811015610b98576000600460003373ffffffffffffffffffffffffffffffffffffffff1673ffffffffffffffffffffffffffffffffffffffff1681526020019081526020016000208281548110610a27577f4e487b7100000000000000000000000000000000000000000000000000000000600052603260045260246000fd5b9060005260206000209060030201905060008060008d8d86818110610a75577f4e487b7100000000000000000000000000000000000000000000000000000000600052603260045260246000fd5b905060200201358c8c87818110610ab5577f4e487b7100000000000000000000000000000000000000000000000000000000600052603260045260246000fd5b9050602002016020810190610aca9190611122565b8b8b88818110610b03577f4e487b7100000000000000000000000000000000000000000000000000000000600052603260045260246000fd5b905060200201359250925092508115610b1f5750505050610b85565b828282604051602001610b3493929190611448565b60405160208183030381529060405280519060200120846000015414610b5d5750505050610b85565b82846001015410610b7457610b723384610d75565b505b6000801b8460000181905550505050505b8080610b90906116ce565b9150506109a6565b50505050505050505050565b600660009054906101000a900473ffffffffffffffffffffffffffffffffffffffff1681565b60025481565b6000600560003373ffffffffffffffffffffffffffffffffffffffff1673ffffffffffffffffffffffffffffffffffffffff16815260200190815260200160002054905090565b60075481565b600154804210610c6457806040517f691e5682000000000000000000000000000000000000000000000000000000008152600401610c5b919061142d565b60405180910390fd5b600460003373ffffffffffffffffffffffffffffffffffffffff1673ffffffffffffffffffffffffffffffffffffffff168152602001908152602001600020604051806060016040528085815260200134815260200184815250908060018154018082558091505060019003906000526020600020906003020160009091909190915060008201518160000155602082015181600101556040820151816002019080519060200190610d17929190610ddc565b50505034600560003373ffffffffffffffffffffffffffffffffffffffff1673ffffffffffffffffffffffffffffffffffffffff1681526020019081526020016000206000828254610d69919061153b565b92505081905550505050565b60006007548211610d895760009050610dd6565b8160078190555082600660006101000a81548173ffffffffffffffffffffffffffffffffffffffff021916908373ffffffffffffffffffffffffffffffffffffffff160217905550600190505b92915050565b828054610de89061166b565b90600052602060002090601f016020900481019282610e0a5760008555610e51565b82601f10610e2357805160ff1916838001178555610e51565b82800160010185558215610e51579182015b82811115610e50578251825591602001919060010190610e35565b5b509050610e5e9190610e62565b5090565b5b80821115610e7b576000816000905550600101610e63565b5090565b6000610e92610e8d846114a4565b61147f565b905082815260208101848484011115610eaa57600080fd5b610eb5848285611629565b509392505050565b600081359050610ecc816117b5565b92915050565b60008083601f840112610ee457600080fd5b8235905067ffffffffffffffff811115610efd57600080fd5b602083019150836020820283011115610f1557600080fd5b9250929050565b60008083601f840112610f2e57600080fd5b8235905067ffffffffffffffff811115610f4757600080fd5b602083019150836020820283011115610f5f57600080fd5b9250929050565b60008083601f840112610f7857600080fd5b8235905067ffffffffffffffff811115610f9157600080fd5b602083019150836020820283011115610fa957600080fd5b9250929050565b600081359050610fbf816117cc565b92915050565b600081359050610fd4816117e3565b92915050565b600082601f830112610feb57600080fd5b8135610ffb848260208601610e7f565b91505092915050565b600081359050611013816117fa565b92915050565b60006020828403121561102b57600080fd5b600061103984828501610ebd565b91505092915050565b6000806040838503121561105557600080fd5b600061106385828601610ebd565b925050602061107485828601611004565b9150509250929050565b6000806000806000806060878903121561109757600080fd5b600087013567ffffffffffffffff8111156110b157600080fd5b6110bd89828a01610f66565b9650965050602087013567ffffffffffffffff8111156110dc57600080fd5b6110e889828a01610ed2565b9450945050604087013567ffffffffffffffff81111561110757600080fd5b61111389828a01610f1c565b92509250509295509295509295565b60006020828403121561113457600080fd5b600061114284828501610fb0565b91505092915050565b6000806040838503121561115e57600080fd5b600061116c85828601610fc5565b925050602083013567ffffffffffffffff81111561118957600080fd5b61119585828601610fda565b9150509250929050565b60006111ab83836112e5565b905092915050565b6111bc816115d7565b82525050565b6111cb816115c5565b82525050565b60006111dc826114e5565b6111e68185611508565b9350836020820285016111f8856114d5565b8060005b858110156112345784840389528151611215858261119f565b9450611220836114fb565b925060208a019950506001810190506111fc565b50829750879550505050505092915050565b61124f816115e9565b82525050565b61125e816115f5565b82525050565b61126d816115f5565b82525050565b600061127e826114f0565b6112888185611519565b9350611298818560208601611638565b6112a1816117a4565b840191505092915050565b60006112b7826114f0565b6112c1818561152a565b93506112d1818560208601611638565b6112da816117a4565b840191505092915050565b60006060830160008301516112fd6000860182611255565b5060208301516113106020860182611335565b50604083015184820360408601526113288282611273565b9150508091505092915050565b61133e8161161f565b82525050565b61134d8161161f565b82525050565b600060208201905061136860008301846111c2565b92915050565b600060208201905061138360008301846111b3565b92915050565b600060408201905061139e60008301856111c2565b6113ab6020830184611344565b9392505050565b600060208201905081810360008301526113cc81846111d1565b905092915050565b60006020820190506113e96000830184611246565b92915050565b60006060820190506114046000830186611264565b6114116020830185611344565b818103604083015261142381846112ac565b9050949350505050565b60006020820190506114426000830184611344565b92915050565b600060608201905061145d6000830186611344565b61146a6020830185611246565b6114776040830184611264565b949350505050565b600061148961149a565b9050611495828261169d565b919050565b6000604051905090565b600067ffffffffffffffff8211156114bf576114be611775565b5b6114c8826117a4565b9050602081019050919050565b6000819050602082019050919050565b600081519050919050565b600081519050919050565b6000602082019050919050565b600082825260208201905092915050565b600082825260208201905092915050565b600082825260208201905092915050565b60006115468261161f565b91506115518361161f565b9250827fffffffffffffffffffffffffffffffffffffffffffffffffffffffffffffffff0382111561158657611585611717565b5b828201905092915050565b600061159c8261161f565b91506115a78361161f565b9250828210156115ba576115b9611717565b5b828203905092915050565b60006115d0826115ff565b9050919050565b60006115e2826115ff565b9050919050565b60008115159050919050565b6000819050919050565b600073ffffffffffffffffffffffffffffffffffffffff82169050919050565b6000819050919050565b82818337600083830152505050565b60005b8381101561165657808201518184015260208101905061163b565b83811115611665576000848401525b50505050565b6000600282049050600182168061168357607f821691505b6020821081141561169757611696611746565b5b50919050565b6116a6826117a4565b810181811067ffffffffffffffff821117156116c5576116c4611775565b5b80604052505050565b60006116d98261161f565b91507fffffffffffffffffffffffffffffffffffffffffffffffffffffffffffffffff82141561170c5761170b611717565b5b600182019050919050565b7f4e487b7100000000000000000000000000000000000000000000000000000000600052601160045260246000fd5b7f4e487b7100000000000000000000000000000000000000000000000000000000600052602260045260246000fd5b7f4e487b7100000000000000000000000000000000000000000000000000000000600052604160045260246000fd5b6000601f19601f8301169050919050565b6117be816115c5565b81146117c957600080fd5b50565b6117d5816115e9565b81146117e057600080fd5b50565b6117ec816115f5565b81146117f757600080fd5b50565b6118038161161f565b811461180e57600080fd5b5056fea2646970667358221220c19cf073cfde10c1f7837386bc4627a0de6f5485c08c1edb3c7bfab4cdc7a11a64736f6c63430008040033",
  "immutableReferences": {},
  "source": "// SPDX-License-Identifier: GPL-3.0\r\npragma solidity ^0.8.4;\r\n\r\ncontract BlindAuction {\r\n    struct Bid {\r\n        bytes32 blindedBid;\r\n        uint256 deposit;\r\n        string encrypt;\r\n    }\r\n\r\n    address payable public beneficiary;\r\n    uint256 public biddingEnd;\r\n    uint256 public revealEnd;\r\n    bool public ended;\r\n\r\n    mapping(address => Bid[]) public bids;\r\n    mapping(address => uint256) public totalDeposit;\r\n    address public highestBidder;\r\n    uint256 public highestBid;\r\n\r\n    event AuctionEnded(address winner, uint256 highestBid);\r\n\r\n    error TooEarly(uint256 time);\r\n\r\n    error TooLate(uint256 time);\r\n\r\n    error AuctionEndAlreadyCalled();\r\n\r\n    modifier onlyBefore(uint256 time) {\r\n        if (block.timestamp >= time) revert TooLate(time);\r\n        _;\r\n    }\r\n    modifier onlyAfter(uint256 time) {\r\n        if (block.timestamp <= time) revert TooEarly(time);\r\n        _;\r\n    }\r\n\r\n    constructor(\r\n        uint256 biddingTime,\r\n        uint256 revealTime,\r\n        address payable beneficiaryAddress\r\n    ) {\r\n        beneficiary = beneficiaryAddress;\r\n        biddingEnd = block.timestamp + biddingTime;\r\n        revealEnd = biddingEnd + revealTime;\r\n    }\r\n\r\n    function bid(bytes32 blindedBid, string memory encryptKey)\r\n        external\r\n        payable\r\n        onlyBefore(biddingEnd)\r\n    {\r\n        bids[msg.sender].push(\r\n            Bid({\r\n                blindedBid: blindedBid,\r\n                deposit: msg.value,\r\n                encrypt: encryptKey\r\n            })\r\n        );\r\n        totalDeposit[msg.sender] += msg.value;\r\n    }\r\n\r\n    function reveal(\r\n        uint256[] calldata values,\r\n        bool[] calldata fakes,\r\n        bytes32[] calldata secrets\r\n    ) external onlyAfter(biddingEnd) onlyBefore(revealEnd) {\r\n        uint256 length = bids[msg.sender].length;\r\n        require(values.length == length);\r\n        require(fakes.length == length);\r\n        require(secrets.length == length);\r\n\r\n        for (uint256 i = 0; i < length; i++) {\r\n            Bid storage bidToCheck = bids[msg.sender][i];\r\n            (uint256 value, bool fake, bytes32 secret) = (\r\n                values[i],\r\n                fakes[i],\r\n                secrets[i]\r\n            );\r\n            if (fake) {\r\n                continue;\r\n            }\r\n            if (\r\n                bidToCheck.blindedBid !=\r\n                keccak256(abi.encode(value, fake, secret))\r\n            ) {\r\n                continue;\r\n            }\r\n            if (bidToCheck.deposit >= value) {\r\n                placeBid(msg.sender, value);\r\n            }\r\n            bidToCheck.blindedBid = bytes32(0);\r\n        }\r\n    }\r\n\r\n    function withdraw() external onlyAfter(revealEnd) {\r\n        uint256 amount = totalDeposit[msg.sender];\r\n        if (msg.sender == highestBidder) {\r\n            amount -= highestBid;\r\n        }\r\n\r\n        if (amount > 0) {\r\n            totalDeposit[msg.sender] = 0;\r\n            payable(msg.sender).transfer(amount);\r\n        }\r\n    }\r\n\r\n    function auctionEnd() external onlyAfter(revealEnd) {\r\n        if (ended) revert AuctionEndAlreadyCalled();\r\n        emit AuctionEnded(highestBidder, highestBid);\r\n        ended = true;\r\n        beneficiary.transfer(highestBid);\r\n    }\r\n\r\n    function placeBid(address bidder, uint256 value)\r\n        internal\r\n        returns (bool success)\r\n    {\r\n        if (value <= highestBid) {\r\n            return false;\r\n        }\r\n        highestBid = value;\r\n        highestBidder = bidder;\r\n        return true;\r\n    }\r\n\r\n    function getListBids(address bidder) public view returns (Bid[] memory) {\r\n        return bids[bidder];\r\n    }\r\n\r\n    function getTotalDeposit() public view returns (uint256) {\r\n        return totalDeposit[msg.sender];\r\n    }\r\n}\r\n",
  "sourcePath": "F:\\blockchain\\blindauction\\contract2\\Blind-Auction-Contract\\Contract\\contracts\\BlindAuction.sol",
  "compiler": {
    "name": "solc",
    "version": "0.8.4+commit.c7e474f2.Emscripten.clang"
  },
  "schemaVersion": "3.4.9",
  "updatedAt": "2022-10-05T01:10:42.700Z",
  "devdoc": {
    "kind": "dev",
    "methods": {},
    "version": 1
  },
  "userdoc": {
    "kind": "user",
    "methods": {},
    "version": 1
  }
}