{
  "contractName": "BlindAuction",
  "abi": [
    {
      "inputs": [
        {
          "internalType": "uint256",
          "name": "biddingTime",
          "type": "uint256"
        },
        {
          "internalType": "uint256",
          "name": "revealTime",
          "type": "uint256"
        },
        {
          "internalType": "address payable",
          "name": "beneficiaryAddress",
          "type": "address"
        }
      ],
      "stateMutability": "nonpayable",
      "type": "constructor"
    },
    {
      "inputs": [],
      "name": "AuctionEndAlreadyCalled",
      "type": "error"
    },
    {
      "inputs": [
        {
          "internalType": "uint256",
          "name": "time",
          "type": "uint256"
        }
      ],
      "name": "TooEarly",
      "type": "error"
    },
    {
      "inputs": [
        {
          "internalType": "uint256",
          "name": "time",
          "type": "uint256"
        }
      ],
      "name": "TooLate",
      "type": "error"
    },
    {
      "anonymous": false,
      "inputs": [
        {
          "indexed": false,
          "internalType": "address",
          "name": "winner",
          "type": "address"
        },
        {
          "indexed": false,
          "internalType": "uint256",
          "name": "highestBid",
          "type": "uint256"
        }
      ],
      "name": "AuctionEnded",
      "type": "event"
    },
    {
      "inputs": [],
      "name": "beneficiary",
      "outputs": [
        {
          "internalType": "address payable",
          "name": "",
          "type": "address"
        }
      ],
      "stateMutability": "view",
      "type": "function",
      "constant": true
    },
    {
      "inputs": [],
      "name": "biddingEnd",
      "outputs": [
        {
          "internalType": "uint256",
          "name": "",
          "type": "uint256"
        }
      ],
      "stateMutability": "view",
      "type": "function",
      "constant": true
    },
    {
      "inputs": [
        {
          "internalType": "address",
          "name": "",
          "type": "address"
        },
        {
          "internalType": "uint256",
          "name": "",
          "type": "uint256"
        }
      ],
      "name": "bids",
      "outputs": [
        {
          "internalType": "bytes32",
          "name": "blindedBid",
          "type": "bytes32"
        },
        {
          "internalType": "uint256",
          "name": "deposit",
          "type": "uint256"
        },
        {
          "internalType": "bytes32",
          "name": "encrypt",
          "type": "bytes32"
        }
      ],
      "stateMutability": "view",
      "type": "function",
      "constant": true
    },
    {
      "inputs": [],
      "name": "ended",
      "outputs": [
        {
          "internalType": "bool",
          "name": "",
          "type": "bool"
        }
      ],
      "stateMutability": "view",
      "type": "function",
      "constant": true
    },
    {
      "inputs": [],
      "name": "highestBid",
      "outputs": [
        {
          "internalType": "uint256",
          "name": "",
          "type": "uint256"
        }
      ],
      "stateMutability": "view",
      "type": "function",
      "constant": true
    },
    {
      "inputs": [],
      "name": "highestBidder",
      "outputs": [
        {
          "internalType": "address",
          "name": "",
          "type": "address"
        }
      ],
      "stateMutability": "view",
      "type": "function",
      "constant": true
    },
    {
      "inputs": [],
      "name": "revealEnd",
      "outputs": [
        {
          "internalType": "uint256",
          "name": "",
          "type": "uint256"
        }
      ],
      "stateMutability": "view",
      "type": "function",
      "constant": true
    },
    {
      "inputs": [
        {
          "internalType": "address",
          "name": "",
          "type": "address"
        }
      ],
      "name": "totalDeposit",
      "outputs": [
        {
          "internalType": "uint256",
          "name": "",
          "type": "uint256"
        }
      ],
      "stateMutability": "view",
      "type": "function",
      "constant": true
    },
    {
      "inputs": [
        {
          "internalType": "bytes32",
          "name": "blindedBid",
          "type": "bytes32"
        },
        {
          "internalType": "bytes32",
          "name": "encryptKey",
          "type": "bytes32"
        }
      ],
      "name": "bid",
      "outputs": [],
      "stateMutability": "payable",
      "type": "function",
      "payable": true
    },
    {
      "inputs": [
        {
          "internalType": "uint256[]",
          "name": "values",
          "type": "uint256[]"
        },
        {
          "internalType": "bool[]",
          "name": "fakes",
          "type": "bool[]"
        },
        {
          "internalType": "bytes32[]",
          "name": "secrets",
          "type": "bytes32[]"
        }
      ],
      "name": "reveal",
      "outputs": [],
      "stateMutability": "nonpayable",
      "type": "function"
    },
    {
      "inputs": [],
      "name": "withdraw",
      "outputs": [],
      "stateMutability": "nonpayable",
      "type": "function"
    },
    {
      "inputs": [],
      "name": "auctionEnd",
      "outputs": [],
      "stateMutability": "nonpayable",
      "type": "function"
    }
  ],
  "bytecode": "0x60806040523480156200001157600080fd5b50604051620013ca380380620013ca8339818101604052810190620000379190620000d8565b806000806101000a81548173ffffffffffffffffffffffffffffffffffffffff021916908373ffffffffffffffffffffffffffffffffffffffff16021790555082426200008591906200012e565b600181905550816001546200009b91906200012e565b6002819055505050506200022c565b600081519050620000bb81620001f8565b92915050565b600081519050620000d28162000212565b92915050565b600080600060608486031215620000ee57600080fd5b6000620000fe86828701620000c1565b93505060206200011186828701620000c1565b92505060406200012486828701620000aa565b9150509250925092565b60006200013b82620001bf565b91506200014883620001bf565b9250827fffffffffffffffffffffffffffffffffffffffffffffffffffffffffffffffff0382111562000180576200017f620001c9565b5b828201905092915050565b600062000198826200019f565b9050919050565b600073ffffffffffffffffffffffffffffffffffffffff82169050919050565b6000819050919050565b7f4e487b7100000000000000000000000000000000000000000000000000000000600052601160045260246000fd5b62000203816200018b565b81146200020f57600080fd5b50565b6200021d81620001bf565b81146200022957600080fd5b50565b61118e806200023c6000396000f3fe6080604052600436106100a75760003560e01c8063423b217f11610064578063423b217f146101ac578063434f967c146101d7578063900f080a146101f357806391f901571461021c578063a6e6647714610247578063d57bde7914610272576100a7565b806301495c1c146100ac5780631084e812146100eb57806312fa6feb146101285780632a24f46c1461015357806338af3eed1461016a5780633ccfd60b14610195575b600080fd5b3480156100b857600080fd5b506100d360048036038101906100ce9190610c73565b61029d565b6040516100e293929190610eff565b60405180910390f35b3480156100f757600080fd5b50610112600480360381019061010d9190610c4a565b6102e4565b60405161011f9190610f36565b60405180910390f35b34801561013457600080fd5b5061013d6102fc565b60405161014a9190610ee4565b60405180910390f35b34801561015f57600080fd5b5061016861030f565b005b34801561017657600080fd5b5061017f610481565b60405161018c9190610ea0565b60405180910390f35b3480156101a157600080fd5b506101aa6104a5565b005b3480156101b857600080fd5b506101c1610631565b6040516101ce9190610f36565b60405180910390f35b6101f160048036038101906101ec9190610d7c565b610637565b005b3480156101ff57600080fd5b5061021a60048036038101906102159190610caf565b61077c565b005b34801561022857600080fd5b50610231610a7f565b60405161023e9190610e85565b60405180910390f35b34801561025357600080fd5b5061025c610aa5565b6040516102699190610f36565b60405180910390f35b34801561027e57600080fd5b50610287610aab565b6040516102949190610f36565b60405180910390f35b600460205281600052604060002081815481106102b957600080fd5b9060005260206000209060030201600091509150508060000154908060010154908060020154905083565b60056020528060005260406000206000915090505481565b600360009054906101000a900460ff1681565b60025480421161035657806040517f2a35a32400000000000000000000000000000000000000000000000000000000815260040161034d9190610f36565b60405180910390fd5b600360009054906101000a900460ff161561039d576040517f61cfdcf800000000000000000000000000000000000000000000000000000000815260040160405180910390fd5b7fdaec4582d5d9595688c8c98545fdd1c696d41c6aeaeb636737e84ed2f5c00eda600660009054906101000a900473ffffffffffffffffffffffffffffffffffffffff166007546040516103f2929190610ebb565b60405180910390a16001600360006101000a81548160ff02191690831515021790555060008054906101000a900473ffffffffffffffffffffffffffffffffffffffff1673ffffffffffffffffffffffffffffffffffffffff166108fc6007549081150290604051600060405180830381858888f1935050505015801561047d573d6000803e3d6000fd5b5050565b60008054906101000a900473ffffffffffffffffffffffffffffffffffffffff1681565b6002548042116104ec57806040517f2a35a3240000000000000000000000000000000000000000000000000000000081526004016104e39190610f36565b60405180910390fd5b6000600560003373ffffffffffffffffffffffffffffffffffffffff1673ffffffffffffffffffffffffffffffffffffffff168152602001908152602001600020549050600660009054906101000a900473ffffffffffffffffffffffffffffffffffffffff1673ffffffffffffffffffffffffffffffffffffffff163373ffffffffffffffffffffffffffffffffffffffff16141561059757600754816105949190610fa7565b90505b600081111561062d576000600560003373ffffffffffffffffffffffffffffffffffffffff1673ffffffffffffffffffffffffffffffffffffffff168152602001908152602001600020819055503373ffffffffffffffffffffffffffffffffffffffff166108fc829081150290604051600060405180830381858888f1935050505015801561062b573d6000803e3d6000fd5b505b5050565b60015481565b60015480421061067e57806040517f691e56820000000000000000000000000000000000000000000000000000000081526004016106759190610f36565b60405180910390fd5b600460003373ffffffffffffffffffffffffffffffffffffffff1673ffffffffffffffffffffffffffffffffffffffff1681526020019081526020016000206040518060600160405280858152602001348152602001848152509080600181540180825580915050600190039060005260206000209060030201600090919091909150600082015181600001556020820151816001015560408201518160020155505034600560003373ffffffffffffffffffffffffffffffffffffffff1673ffffffffffffffffffffffffffffffffffffffff16815260200190815260200160002060008282546107709190610f51565b92505081905550505050565b6001548042116107c357806040517f2a35a3240000000000000000000000000000000000000000000000000000000081526004016107ba9190610f36565b60405180910390fd5b60025480421061080a57806040517f691e56820000000000000000000000000000000000000000000000000000000081526004016108019190610f36565b60405180910390fd5b6000600460003373ffffffffffffffffffffffffffffffffffffffff1673ffffffffffffffffffffffffffffffffffffffff16815260200190815260200160002080549050905080898990501461086057600080fd5b80878790501461086f57600080fd5b80858590501461087e57600080fd5b60005b81811015610a73576000600460003373ffffffffffffffffffffffffffffffffffffffff1673ffffffffffffffffffffffffffffffffffffffff1681526020019081526020016000208281548110610902577f4e487b7100000000000000000000000000000000000000000000000000000000600052603260045260246000fd5b9060005260206000209060030201905060008060008d8d86818110610950577f4e487b7100000000000000000000000000000000000000000000000000000000600052603260045260246000fd5b905060200201358c8c87818110610990577f4e487b7100000000000000000000000000000000000000000000000000000000600052603260045260246000fd5b90506020020160208101906109a59190610d53565b8b8b888181106109de577f4e487b7100000000000000000000000000000000000000000000000000000000600052603260045260246000fd5b9050602002013592509250925081156109fa5750505050610a60565b828282604051602001610a0f93929190610e48565b60405160208183030381529060405280519060200120846000015414610a385750505050610a60565b82846001015410610a4f57610a4d3384610ab1565b505b6000801b8460000181905550505050505b8080610a6b9061103f565b915050610881565b50505050505050505050565b600660009054906101000a900473ffffffffffffffffffffffffffffffffffffffff1681565b60025481565b60075481565b60006007548211610ac55760009050610b12565b8160078190555082600660006101000a81548173ffffffffffffffffffffffffffffffffffffffff021916908373ffffffffffffffffffffffffffffffffffffffff160217905550600190505b92915050565b600081359050610b27816110fc565b92915050565b60008083601f840112610b3f57600080fd5b8235905067ffffffffffffffff811115610b5857600080fd5b602083019150836020820283011115610b7057600080fd5b9250929050565b60008083601f840112610b8957600080fd5b8235905067ffffffffffffffff811115610ba257600080fd5b602083019150836020820283011115610bba57600080fd5b9250929050565b60008083601f840112610bd357600080fd5b8235905067ffffffffffffffff811115610bec57600080fd5b602083019150836020820283011115610c0457600080fd5b9250929050565b600081359050610c1a81611113565b92915050565b600081359050610c2f8161112a565b92915050565b600081359050610c4481611141565b92915050565b600060208284031215610c5c57600080fd5b6000610c6a84828501610b18565b91505092915050565b60008060408385031215610c8657600080fd5b6000610c9485828601610b18565b9250506020610ca585828601610c35565b9150509250929050565b60008060008060008060608789031215610cc857600080fd5b600087013567ffffffffffffffff811115610ce257600080fd5b610cee89828a01610bc1565b9650965050602087013567ffffffffffffffff811115610d0d57600080fd5b610d1989828a01610b2d565b9450945050604087013567ffffffffffffffff811115610d3857600080fd5b610d4489828a01610b77565b92509250509295509295509295565b600060208284031215610d6557600080fd5b6000610d7384828501610c0b565b91505092915050565b60008060408385031215610d8f57600080fd5b6000610d9d85828601610c20565b9250506020610dae85828601610c20565b9150509250929050565b610dc181610fed565b82525050565b610dd081610fdb565b82525050565b610ddf81610fff565b82525050565b610df6610df182610fff565b611088565b82525050565b610e058161100b565b82525050565b610e1c610e178261100b565b61109a565b82525050565b610e2b81611035565b82525050565b610e42610e3d82611035565b6110a4565b82525050565b6000610e548286610e31565b602082019150610e648285610de5565b600182019150610e748284610e0b565b602082019150819050949350505050565b6000602082019050610e9a6000830184610dc7565b92915050565b6000602082019050610eb56000830184610db8565b92915050565b6000604082019050610ed06000830185610dc7565b610edd6020830184610e22565b9392505050565b6000602082019050610ef96000830184610dd6565b92915050565b6000606082019050610f146000830186610dfc565b610f216020830185610e22565b610f2e6040830184610dfc565b949350505050565b6000602082019050610f4b6000830184610e22565b92915050565b6000610f5c82611035565b9150610f6783611035565b9250827fffffffffffffffffffffffffffffffffffffffffffffffffffffffffffffffff03821115610f9c57610f9b6110c0565b5b828201905092915050565b6000610fb282611035565b9150610fbd83611035565b925082821015610fd057610fcf6110c0565b5b828203905092915050565b6000610fe682611015565b9050919050565b6000610ff882611015565b9050919050565b60008115159050919050565b6000819050919050565b600073ffffffffffffffffffffffffffffffffffffffff82169050919050565b6000819050919050565b600061104a82611035565b91507fffffffffffffffffffffffffffffffffffffffffffffffffffffffffffffffff82141561107d5761107c6110c0565b5b600182019050919050565b6000611093826110ae565b9050919050565b6000819050919050565b6000819050919050565b60006110b9826110ef565b9050919050565b7f4e487b7100000000000000000000000000000000000000000000000000000000600052601160045260246000fd5b60008160f81b9050919050565b61110581610fdb565b811461111057600080fd5b50565b61111c81610fff565b811461112757600080fd5b50565b6111338161100b565b811461113e57600080fd5b50565b61114a81611035565b811461115557600080fd5b5056fea264697066735822122073015dd97f966c2d42dc369fc632457597784cdd7e2fbbc0738f97b90a9e8c1464736f6c63430008040033",
  "immutableReferences": {},
  "source": "// SPDX-License-Identifier: GPL-3.0\r\npragma solidity ^0.8.4;\r\n\r\ncontract BlindAuction {\r\n    struct Bid {\r\n        bytes32 blindedBid;\r\n        uint256 deposit;\r\n        bytes32 encrypt;\r\n    }\r\n\r\n    address payable public beneficiary;\r\n    uint256 public biddingEnd;\r\n    uint256 public revealEnd;\r\n    bool public ended;\r\n\r\n    mapping(address => Bid[]) public bids;\r\n    mapping(address => uint256) public totalDeposit;\r\n    address public highestBidder;\r\n    uint256 public highestBid;\r\n\r\n    event AuctionEnded(address winner, uint256 highestBid);\r\n\r\n    error TooEarly(uint256 time);\r\n\r\n    error TooLate(uint256 time);\r\n\r\n    error AuctionEndAlreadyCalled();\r\n\r\n    modifier onlyBefore(uint256 time) {\r\n        if (block.timestamp >= time) revert TooLate(time);\r\n        _;\r\n    }\r\n    modifier onlyAfter(uint256 time) {\r\n        if (block.timestamp <= time) revert TooEarly(time);\r\n        _;\r\n    }\r\n\r\n    constructor(\r\n        uint256 biddingTime,\r\n        uint256 revealTime,\r\n        address payable beneficiaryAddress\r\n    ) {\r\n        beneficiary = beneficiaryAddress;\r\n        biddingEnd = block.timestamp + biddingTime;\r\n        revealEnd = biddingEnd + revealTime;\r\n    }\r\n\r\n    function bid(bytes32 blindedBid, bytes32 encryptKey)\r\n        external\r\n        payable\r\n        onlyBefore(biddingEnd)\r\n    {\r\n        bids[msg.sender].push(\r\n            Bid({\r\n                blindedBid: blindedBid,\r\n                deposit: msg.value,\r\n                encrypt: encryptKey\r\n            })\r\n        );\r\n        totalDeposit[msg.sender] += msg.value;\r\n    }\r\n\r\n    function reveal(\r\n        uint256[] calldata values,\r\n        bool[] calldata fakes,\r\n        bytes32[] calldata secrets\r\n    ) external onlyAfter(biddingEnd) onlyBefore(revealEnd) {\r\n        uint256 length = bids[msg.sender].length;\r\n        require(values.length == length);\r\n        require(fakes.length == length);\r\n        require(secrets.length == length);\r\n\r\n        for (uint256 i = 0; i < length; i++) {\r\n            Bid storage bidToCheck = bids[msg.sender][i];\r\n            (uint256 value, bool fake, bytes32 secret) = (\r\n                values[i],\r\n                fakes[i],\r\n                secrets[i]\r\n            );\r\n            if (fake) {\r\n                continue;\r\n            }\r\n            if (\r\n                bidToCheck.blindedBid !=\r\n                keccak256(abi.encodePacked(value, fake, secret))\r\n            ) {\r\n                continue;\r\n            }\r\n            if (bidToCheck.deposit >= value) {\r\n                placeBid(msg.sender, value);\r\n            }\r\n            bidToCheck.blindedBid = bytes32(0);\r\n        }\r\n    }\r\n\r\n    function withdraw() external onlyAfter(revealEnd) {\r\n        uint256 amount = totalDeposit[msg.sender];\r\n        if (msg.sender == highestBidder) {\r\n            amount -= highestBid;\r\n        }\r\n\r\n        if (amount > 0) {\r\n            totalDeposit[msg.sender] = 0;\r\n            payable(msg.sender).transfer(amount);\r\n        }\r\n    }\r\n\r\n    function auctionEnd() external onlyAfter(revealEnd) {\r\n        if (ended) revert AuctionEndAlreadyCalled();\r\n        emit AuctionEnded(highestBidder, highestBid);\r\n        ended = true;\r\n        beneficiary.transfer(highestBid);\r\n    }\r\n\r\n    function placeBid(address bidder, uint256 value)\r\n        internal\r\n        returns (bool success)\r\n    {\r\n        if (value <= highestBid) {\r\n            return false;\r\n        }\r\n        highestBid = value;\r\n        highestBidder = bidder;\r\n        return true;\r\n    }\r\n}\r\n",
  "sourcePath": "F:\\blockchain\\blindauction\\auction contract\\Blind-Auction-Contract\\Contract\\contracts\\BlindAuction.sol",
  "compiler": {
    "name": "solc",
    "version": "0.8.4+commit.c7e474f2.Emscripten.clang"
  },
  "schemaVersion": "3.4.9",
  "updatedAt": "2022-09-16T03:28:31.883Z",
  "networkType": "ethereum",
  "devdoc": {
    "kind": "dev",
    "methods": {},
    "version": 1
  },
  "userdoc": {
    "kind": "user",
    "methods": {},
    "version": 1
  }
}